{
  "contractName": "MyTokenSale",
  "abi": [
    {
      "inputs": [
        {
          "internalType": "uint256",
          "name": "rate",
          "type": "uint256"
        },
        {
          "internalType": "address payable",
          "name": "wallet",
          "type": "address"
        },
        {
          "internalType": "contract IERC20",
          "name": "token",
          "type": "address"
        },
        {
          "internalType": "contract KycContract",
          "name": "_kyc",
          "type": "address"
        }
      ],
      "stateMutability": "nonpayable",
      "type": "constructor"
    },
    {
      "anonymous": false,
      "inputs": [
        {
          "indexed": true,
          "internalType": "address",
          "name": "purchaser",
          "type": "address"
        },
        {
          "indexed": true,
          "internalType": "address",
          "name": "beneficiary",
          "type": "address"
        },
        {
          "indexed": false,
          "internalType": "uint256",
          "name": "value",
          "type": "uint256"
        },
        {
          "indexed": false,
          "internalType": "uint256",
          "name": "amount",
          "type": "uint256"
        }
      ],
      "name": "TokensPurchased",
      "type": "event"
    },
    {
      "inputs": [
        {
          "internalType": "address",
          "name": "beneficiary",
          "type": "address"
        }
      ],
      "name": "buyTokens",
      "outputs": [],
      "stateMutability": "payable",
      "type": "function",
      "payable": true
    },
    {
      "inputs": [],
      "name": "weiRaised",
      "outputs": [
        {
          "internalType": "uint256",
          "name": "",
          "type": "uint256"
        }
      ],
      "stateMutability": "view",
      "type": "function",
      "constant": true
    },
    {
      "stateMutability": "payable",
      "type": "receive",
      "payable": true
    }
  ],
  "bytecode": "0x60806040523480156200001157600080fd5b506040516200140d3803806200140d8339818101604052810190620000379190620002a1565b83838360016000819055506000831162000088576040517f08c379a00000000000000000000000000000000000000000000000000000000081526004016200007f9062000441565b60405180910390fd5b600073ffffffffffffffffffffffffffffffffffffffff168273ffffffffffffffffffffffffffffffffffffffff161415620000fb576040517f08c379a0000000000000000000000000000000000000000000000000000000008152600401620000f29062000463565b60405180910390fd5b600073ffffffffffffffffffffffffffffffffffffffff168173ffffffffffffffffffffffffffffffffffffffff1614156200016e576040517f08c379a000000000000000000000000000000000000000000000000000000000815260040162000165906200041f565b60405180910390fd5b8260038190555081600260006101000a81548173ffffffffffffffffffffffffffffffffffffffff021916908373ffffffffffffffffffffffffffffffffffffffff16021790555080600160006101000a81548173ffffffffffffffffffffffffffffffffffffffff021916908373ffffffffffffffffffffffffffffffffffffffff16021790555050505080600560006101000a81548173ffffffffffffffffffffffffffffffffffffffff021916908373ffffffffffffffffffffffffffffffffffffffff1602179055505050505062000578565b600081519050620002568162000510565b92915050565b6000815190506200026d816200052a565b92915050565b600081519050620002848162000544565b92915050565b6000815190506200029b816200055e565b92915050565b60008060008060808587031215620002b857600080fd5b6000620002c8878288016200028a565b9450506020620002db8782880162000245565b9350506040620002ee878288016200025c565b9250506060620003018782880162000273565b91505092959194509250565b60006200031c60248362000485565b91507f43726f776473616c653a20746f6b656e20697320746865207a65726f2061646460008301527f72657373000000000000000000000000000000000000000000000000000000006020830152604082019050919050565b60006200038460148362000485565b91507f43726f776473616c653a207261746520697320300000000000000000000000006000830152602082019050919050565b6000620003c660258362000485565b91507f43726f776473616c653a2077616c6c657420697320746865207a65726f20616460008301527f64726573730000000000000000000000000000000000000000000000000000006020830152604082019050919050565b600060208201905081810360008301526200043a816200030d565b9050919050565b600060208201905081810360008301526200045c8162000375565b9050919050565b600060208201905081810360008301526200047e81620003b7565b9050919050565b600082825260208201905092915050565b6000620004a382620004e6565b9050919050565b6000620004b782620004e6565b9050919050565b6000620004cb8262000496565b9050919050565b6000620004df8262000496565b9050919050565b600073ffffffffffffffffffffffffffffffffffffffff82169050919050565b6000819050919050565b6200051b81620004aa565b81146200052757600080fd5b50565b6200053581620004be565b81146200054157600080fd5b50565b6200054f81620004d2565b81146200055b57600080fd5b50565b620005698162000506565b81146200057557600080fd5b50565b610e8580620005886000396000f3fe60806040526004361061002d5760003560e01c80634042b66f14610049578063ec8ac4d81461007457610044565b366100445761004261003d610090565b610098565b005b600080fd5b34801561005557600080fd5b5061005e6101be565b60405161006b9190610c40565b60405180910390f35b61008e600480360381019061008991906107b1565b610098565b005b600033905090565b600260005414156100de576040517f08c379a00000000000000000000000000000000000000000000000000000000081526004016100d590610c00565b60405180910390fd5b600260008190555060003490506100f582826101c8565b6000610100826102c0565b9050610117826004546102de90919063ffffffff16565b60048190555061012783826102f4565b8273ffffffffffffffffffffffffffffffffffffffff16610146610090565b73ffffffffffffffffffffffffffffffffffffffff167f6faf93231a456e552dbc9961f58d9713ee4f2e69d15f1975b050ef0911053a7b848460405161018d929190610c5b565b60405180910390a361019f8383610302565b6101a7610306565b6101b18383610371565b5050600160008190555050565b6000600454905090565b6101d28282610375565b600560009054906101000a900473ffffffffffffffffffffffffffffffffffffffff1673ffffffffffffffffffffffffffffffffffffffff16639b0763e8336040518263ffffffff1660e01b815260040161022d9190610afa565b60206040518083038186803b15801561024557600080fd5b505afa158015610259573d6000803e3d6000fd5b505050506040513d601f19601f8201168201806040525081019061027d91906107da565b6102bc576040517f08c379a00000000000000000000000000000000000000000000000000000000081526004016102b390610b60565b60405180910390fd5b5050565b60006102d76003548361042d90919063ffffffff16565b9050919050565b600081836102ec9190610cb6565b905092915050565b6102fe8282610443565b5050565b5050565b600260009054906101000a900473ffffffffffffffffffffffffffffffffffffffff1673ffffffffffffffffffffffffffffffffffffffff166108fc349081150290604051600060405180830381858888f1935050505015801561036e573d6000803e3d6000fd5b50565b5050565b600073ffffffffffffffffffffffffffffffffffffffff168273ffffffffffffffffffffffffffffffffffffffff1614156103e5576040517f08c379a00000000000000000000000000000000000000000000000000000000081526004016103dc90610ba0565b60405180910390fd5b6000811415610429576040517f08c379a000000000000000000000000000000000000000000000000000000000815260040161042090610c20565b60405180910390fd5b5050565b6000818361043b9190610d0c565b905092915050565b6104908282600160009054906101000a900473ffffffffffffffffffffffffffffffffffffffff1673ffffffffffffffffffffffffffffffffffffffff166104949092919063ffffffff16565b5050565b6105158363a9059cbb60e01b84846040516024016104b3929190610b15565b604051602081830303815290604052907bffffffffffffffffffffffffffffffffffffffffffffffffffffffff19166020820180517bffffffffffffffffffffffffffffffffffffffffffffffffffffffff838183161783525050505061051a565b505050565b600061057c826040518060400160405280602081526020017f5361666545524332303a206c6f772d6c6576656c2063616c6c206661696c65648152508573ffffffffffffffffffffffffffffffffffffffff166105e19092919063ffffffff16565b90506000815111156105dc578080602001905181019061059c91906107da565b6105db576040517f08c379a00000000000000000000000000000000000000000000000000000000081526004016105d290610be0565b60405180910390fd5b5b505050565b60606105f084846000856105f9565b90509392505050565b60608247101561063e576040517f08c379a000000000000000000000000000000000000000000000000000000000815260040161063590610b80565b60405180910390fd5b6106478561070d565b610686576040517f08c379a000000000000000000000000000000000000000000000000000000000815260040161067d90610bc0565b60405180910390fd5b6000808673ffffffffffffffffffffffffffffffffffffffff1685876040516106af9190610ae3565b60006040518083038185875af1925050503d80600081146106ec576040519150601f19603f3d011682016040523d82523d6000602084013e6106f1565b606091505b5091509150610701828286610720565b92505050949350505050565b600080823b905060008111915050919050565b6060831561073057829050610780565b6000835111156107435782518084602001fd5b816040517f08c379a00000000000000000000000000000000000000000000000000000000081526004016107779190610b3e565b60405180910390fd5b9392505050565b60008135905061079681610e21565b92915050565b6000815190506107ab81610e38565b92915050565b6000602082840312156107c357600080fd5b60006107d184828501610787565b91505092915050565b6000602082840312156107ec57600080fd5b60006107fa8482850161079c565b91505092915050565b61080c81610d66565b82525050565b600061081d82610c84565b6108278185610c9a565b9350610837818560208601610dae565b80840191505092915050565b600061084e82610c8f565b6108588185610ca5565b9350610868818560208601610dae565b61087181610e10565b840191505092915050565b6000610889602783610ca5565b91507f4b5943206e6f7420636f6d706c657465642c207075726368617365206e6f742060008301527f616c6c6f776564000000000000000000000000000000000000000000000000006020830152604082019050919050565b60006108ef602683610ca5565b91507f416464726573733a20696e73756666696369656e742062616c616e636520666f60008301527f722063616c6c00000000000000000000000000000000000000000000000000006020830152604082019050919050565b6000610955602a83610ca5565b91507f43726f776473616c653a2062656e656669636961727920697320746865207a6560008301527f726f2061646472657373000000000000000000000000000000000000000000006020830152604082019050919050565b60006109bb601d83610ca5565b91507f416464726573733a2063616c6c20746f206e6f6e2d636f6e74726163740000006000830152602082019050919050565b60006109fb602a83610ca5565b91507f5361666545524332303a204552433230206f7065726174696f6e20646964206e60008301527f6f742073756363656564000000000000000000000000000000000000000000006020830152604082019050919050565b6000610a61601f83610ca5565b91507f5265656e7472616e637947756172643a207265656e7472616e742063616c6c006000830152602082019050919050565b6000610aa1601983610ca5565b91507f43726f776473616c653a20776569416d6f756e742069732030000000000000006000830152602082019050919050565b610add81610da4565b82525050565b6000610aef8284610812565b915081905092915050565b6000602082019050610b0f6000830184610803565b92915050565b6000604082019050610b2a6000830185610803565b610b376020830184610ad4565b9392505050565b60006020820190508181036000830152610b588184610843565b905092915050565b60006020820190508181036000830152610b798161087c565b9050919050565b60006020820190508181036000830152610b99816108e2565b9050919050565b60006020820190508181036000830152610bb981610948565b9050919050565b60006020820190508181036000830152610bd9816109ae565b9050919050565b60006020820190508181036000830152610bf9816109ee565b9050919050565b60006020820190508181036000830152610c1981610a54565b9050919050565b60006020820190508181036000830152610c3981610a94565b9050919050565b6000602082019050610c556000830184610ad4565b92915050565b6000604082019050610c706000830185610ad4565b610c7d6020830184610ad4565b9392505050565b600081519050919050565b600081519050919050565b600081905092915050565b600082825260208201905092915050565b6000610cc182610da4565b9150610ccc83610da4565b9250827fffffffffffffffffffffffffffffffffffffffffffffffffffffffffffffffff03821115610d0157610d00610de1565b5b828201905092915050565b6000610d1782610da4565b9150610d2283610da4565b9250817fffffffffffffffffffffffffffffffffffffffffffffffffffffffffffffffff0483118215151615610d5b57610d5a610de1565b5b828202905092915050565b6000610d7182610d84565b9050919050565b60008115159050919050565b600073ffffffffffffffffffffffffffffffffffffffff82169050919050565b6000819050919050565b60005b83811015610dcc578082015181840152602081019050610db1565b83811115610ddb576000848401525b50505050565b7f4e487b7100000000000000000000000000000000000000000000000000000000600052601160045260246000fd5b6000601f19601f8301169050919050565b610e2a81610d66565b8114610e3557600080fd5b50565b610e4181610d78565b8114610e4c57600080fd5b5056fea26469706673582212205ee5eccc617f4588fe4d27ea560d4614c9bf52269d1251dfeb422bbb5859079064736f6c63430008000033",
  "immutableReferences": {},
  "source": "//SPDX-License-Identifier: MIT\r\npragma solidity ^0.8.0;\r\n\r\nimport \"./CrowdSale.sol\";\r\nimport \"./KycContract.sol\";\r\n\r\n//this contract will 'own' the tokens and distribute the tokens\r\ncontract MyTokenSale is CrowdSale {\r\n\r\n  //declare instance of our contract (address) as type KycContract (the contract object we imported)\r\n  KycContract kyc;\r\n\r\n  //rate -> the exchange rate of token to eth (set at 1 wei = 1 token)\r\n  //wallet -> the deployers account address \r\n  //token -> the address of our token (note: we don't need to import the IERC object in this contract because it is inherited)\r\n  //_kyc -> the address of our kyc contract\r\n  //NOTE-> we are passing constructor inputs from this contract to the crowdsale (inherited) contract (notice no type listed for the variables in crowdsale)\r\n  constructor (uint256 rate, address payable wallet, IERC20 token, KycContract _kyc)  CrowdSale (rate, wallet, token) {\r\n    kyc = _kyc;\r\n  }\r\n\r\n  function _preValidatePurchase(address beneficiary, uint256 weiAmount) internal view override {\r\n    //since we override the contract, we want to use the original code, so we use super\r\n    super._preValidatePurchase(beneficiary, weiAmount);\r\n    //additional funtionality of the function is done below\r\n    require(kyc.kycCheck(msg.sender), \"KYC not completed, purchase not allowed\");\r\n  }\r\n\r\n}",
  "sourcePath": "C:/Users/Guceri/projects/tokenize/src/contracts/MyTokenSale.sol",
  "compiler": {
    "name": "solc",
    "version": "0.8.0+commit.c7dfd78e.Emscripten.clang"
  },
  "schemaVersion": "3.4.1",
  "updatedAt": "2021-05-19T19:26:44.472Z",
  "networkType": "ethereum",
  "devdoc": {
    "kind": "dev",
    "methods": {
      "buyTokens(address)": {
        "details": "low level token purchase ***DO NOT OVERRIDE*** This function has a non-reentrancy guard, so it shouldn't be called by another `nonReentrant` function.",
        "params": {
          "beneficiary": "Recipient of the token purchase"
        }
      },
      "weiRaised()": {
        "returns": {
          "_0": "the amount of wei raised."
        }
      }
    },
    "version": 1
  },
  "userdoc": {
    "events": {
      "TokensPurchased(address,address,uint256,uint256)": {
        "notice": "Event for token purchase logging"
      }
    },
    "kind": "user",
    "methods": {},
    "version": 1
  }
}