{
  "contractName": "MyTokenSale",
  "abi": [
    {
      "inputs": [
        {
          "internalType": "uint256",
          "name": "rate",
          "type": "uint256"
        },
        {
          "internalType": "address payable",
          "name": "wallet",
          "type": "address"
        },
        {
          "internalType": "contract IERC20",
          "name": "token",
          "type": "address"
        }
      ],
      "stateMutability": "nonpayable",
      "type": "constructor"
    },
    {
      "anonymous": false,
      "inputs": [
        {
          "indexed": true,
          "internalType": "address",
          "name": "purchaser",
          "type": "address"
        },
        {
          "indexed": true,
          "internalType": "address",
          "name": "beneficiary",
          "type": "address"
        },
        {
          "indexed": false,
          "internalType": "uint256",
          "name": "value",
          "type": "uint256"
        },
        {
          "indexed": false,
          "internalType": "uint256",
          "name": "amount",
          "type": "uint256"
        }
      ],
      "name": "TokensPurchased",
      "type": "event"
    },
    {
      "inputs": [
        {
          "internalType": "address",
          "name": "beneficiary",
          "type": "address"
        }
      ],
      "name": "buyTokens",
      "outputs": [],
      "stateMutability": "payable",
      "type": "function",
      "payable": true
    },
    {
      "inputs": [],
      "name": "weiRaised",
      "outputs": [
        {
          "internalType": "uint256",
          "name": "",
          "type": "uint256"
        }
      ],
      "stateMutability": "view",
      "type": "function",
      "constant": true
    },
    {
      "stateMutability": "payable",
      "type": "receive",
      "payable": true
    }
  ],
  "bytecode": "0x60806040523480156200001157600080fd5b50604051620011d7380380620011d7833981810160405281019062000037919062000248565b82828260016000819055506000831162000088576040517f08c379a00000000000000000000000000000000000000000000000000000000081526004016200007f90620003d2565b60405180910390fd5b600073ffffffffffffffffffffffffffffffffffffffff168273ffffffffffffffffffffffffffffffffffffffff161415620000fb576040517f08c379a0000000000000000000000000000000000000000000000000000000008152600401620000f290620003f4565b60405180910390fd5b600073ffffffffffffffffffffffffffffffffffffffff168173ffffffffffffffffffffffffffffffffffffffff1614156200016e576040517f08c379a00000000000000000000000000000000000000000000000000000000081526004016200016590620003b0565b60405180910390fd5b8260038190555081600260006101000a81548173ffffffffffffffffffffffffffffffffffffffff021916908373ffffffffffffffffffffffffffffffffffffffff16021790555080600160006101000a81548173ffffffffffffffffffffffffffffffffffffffff021916908373ffffffffffffffffffffffffffffffffffffffff160217905550505050505050620004db565b60008151905062000214816200048d565b92915050565b6000815190506200022b81620004a7565b92915050565b6000815190506200024281620004c1565b92915050565b6000806000606084860312156200025e57600080fd5b60006200026e8682870162000231565b9350506020620002818682870162000203565b925050604062000294868287016200021a565b9150509250925092565b6000620002ad60248362000416565b91507f43726f776473616c653a20746f6b656e20697320746865207a65726f2061646460008301527f72657373000000000000000000000000000000000000000000000000000000006020830152604082019050919050565b60006200031560148362000416565b91507f43726f776473616c653a207261746520697320300000000000000000000000006000830152602082019050919050565b60006200035760258362000416565b91507f43726f776473616c653a2077616c6c657420697320746865207a65726f20616460008301527f64726573730000000000000000000000000000000000000000000000000000006020830152604082019050919050565b60006020820190508181036000830152620003cb816200029e565b9050919050565b60006020820190508181036000830152620003ed8162000306565b9050919050565b600060208201905081810360008301526200040f8162000348565b9050919050565b600082825260208201905092915050565b6000620004348262000463565b9050919050565b6000620004488262000463565b9050919050565b60006200045c8262000427565b9050919050565b600073ffffffffffffffffffffffffffffffffffffffff82169050919050565b6000819050919050565b62000498816200043b565b8114620004a457600080fd5b50565b620004b2816200044f565b8114620004be57600080fd5b50565b620004cc8162000483565b8114620004d857600080fd5b50565b610cec80620004eb6000396000f3fe60806040526004361061002d5760003560e01c80634042b66f14610049578063ec8ac4d81461007457610044565b366100445761004261003d610090565b610098565b005b600080fd5b34801561005557600080fd5b5061005e6101be565b60405161006b9190610aa7565b60405180910390f35b61008e600480360381019061008991906106b9565b610098565b005b600033905090565b600260005414156100de576040517f08c379a00000000000000000000000000000000000000000000000000000000081526004016100d590610a67565b60405180910390fd5b600260008190555060003490506100f582826101c8565b600061010082610280565b90506101178260045461029e90919063ffffffff16565b60048190555061012783826102b4565b8273ffffffffffffffffffffffffffffffffffffffff16610146610090565b73ffffffffffffffffffffffffffffffffffffffff167f6faf93231a456e552dbc9961f58d9713ee4f2e69d15f1975b050ef0911053a7b848460405161018d929190610ac2565b60405180910390a361019f83836102c2565b6101a76102c6565b6101b18383610331565b5050600160008190555050565b6000600454905090565b600073ffffffffffffffffffffffffffffffffffffffff168273ffffffffffffffffffffffffffffffffffffffff161415610238576040517f08c379a000000000000000000000000000000000000000000000000000000000815260040161022f90610a07565b60405180910390fd5b600081141561027c576040517f08c379a000000000000000000000000000000000000000000000000000000000815260040161027390610a87565b60405180910390fd5b5050565b60006102976003548361033590919063ffffffff16565b9050919050565b600081836102ac9190610b1d565b905092915050565b6102be828261034b565b5050565b5050565b600260009054906101000a900473ffffffffffffffffffffffffffffffffffffffff1673ffffffffffffffffffffffffffffffffffffffff166108fc349081150290604051600060405180830381858888f1935050505015801561032e573d6000803e3d6000fd5b50565b5050565b600081836103439190610b73565b905092915050565b6103988282600160009054906101000a900473ffffffffffffffffffffffffffffffffffffffff1673ffffffffffffffffffffffffffffffffffffffff1661039c9092919063ffffffff16565b5050565b61041d8363a9059cbb60e01b84846040516024016103bb92919061099c565b604051602081830303815290604052907bffffffffffffffffffffffffffffffffffffffffffffffffffffffff19166020820180517bffffffffffffffffffffffffffffffffffffffffffffffffffffffff8381831617835250505050610422565b505050565b6000610484826040518060400160405280602081526020017f5361666545524332303a206c6f772d6c6576656c2063616c6c206661696c65648152508573ffffffffffffffffffffffffffffffffffffffff166104e99092919063ffffffff16565b90506000815111156104e457808060200190518101906104a491906106e2565b6104e3576040517f08c379a00000000000000000000000000000000000000000000000000000000081526004016104da90610a47565b60405180910390fd5b5b505050565b60606104f88484600085610501565b90509392505050565b606082471015610546576040517f08c379a000000000000000000000000000000000000000000000000000000000815260040161053d906109e7565b60405180910390fd5b61054f85610615565b61058e576040517f08c379a000000000000000000000000000000000000000000000000000000000815260040161058590610a27565b60405180910390fd5b6000808673ffffffffffffffffffffffffffffffffffffffff1685876040516105b79190610985565b60006040518083038185875af1925050503d80600081146105f4576040519150601f19603f3d011682016040523d82523d6000602084013e6105f9565b606091505b5091509150610609828286610628565b92505050949350505050565b600080823b905060008111915050919050565b6060831561063857829050610688565b60008351111561064b5782518084602001fd5b816040517f08c379a000000000000000000000000000000000000000000000000000000000815260040161067f91906109c5565b60405180910390fd5b9392505050565b60008135905061069e81610c88565b92915050565b6000815190506106b381610c9f565b92915050565b6000602082840312156106cb57600080fd5b60006106d98482850161068f565b91505092915050565b6000602082840312156106f457600080fd5b6000610702848285016106a4565b91505092915050565b61071481610bcd565b82525050565b600061072582610aeb565b61072f8185610b01565b935061073f818560208601610c15565b80840191505092915050565b600061075682610af6565b6107608185610b0c565b9350610770818560208601610c15565b61077981610c77565b840191505092915050565b6000610791602683610b0c565b91507f416464726573733a20696e73756666696369656e742062616c616e636520666f60008301527f722063616c6c00000000000000000000000000000000000000000000000000006020830152604082019050919050565b60006107f7602a83610b0c565b91507f43726f776473616c653a2062656e656669636961727920697320746865207a6560008301527f726f2061646472657373000000000000000000000000000000000000000000006020830152604082019050919050565b600061085d601d83610b0c565b91507f416464726573733a2063616c6c20746f206e6f6e2d636f6e74726163740000006000830152602082019050919050565b600061089d602a83610b0c565b91507f5361666545524332303a204552433230206f7065726174696f6e20646964206e60008301527f6f742073756363656564000000000000000000000000000000000000000000006020830152604082019050919050565b6000610903601f83610b0c565b91507f5265656e7472616e637947756172643a207265656e7472616e742063616c6c006000830152602082019050919050565b6000610943601983610b0c565b91507f43726f776473616c653a20776569416d6f756e742069732030000000000000006000830152602082019050919050565b61097f81610c0b565b82525050565b6000610991828461071a565b915081905092915050565b60006040820190506109b1600083018561070b565b6109be6020830184610976565b9392505050565b600060208201905081810360008301526109df818461074b565b905092915050565b60006020820190508181036000830152610a0081610784565b9050919050565b60006020820190508181036000830152610a20816107ea565b9050919050565b60006020820190508181036000830152610a4081610850565b9050919050565b60006020820190508181036000830152610a6081610890565b9050919050565b60006020820190508181036000830152610a80816108f6565b9050919050565b60006020820190508181036000830152610aa081610936565b9050919050565b6000602082019050610abc6000830184610976565b92915050565b6000604082019050610ad76000830185610976565b610ae46020830184610976565b9392505050565b600081519050919050565b600081519050919050565b600081905092915050565b600082825260208201905092915050565b6000610b2882610c0b565b9150610b3383610c0b565b9250827fffffffffffffffffffffffffffffffffffffffffffffffffffffffffffffffff03821115610b6857610b67610c48565b5b828201905092915050565b6000610b7e82610c0b565b9150610b8983610c0b565b9250817fffffffffffffffffffffffffffffffffffffffffffffffffffffffffffffffff0483118215151615610bc257610bc1610c48565b5b828202905092915050565b6000610bd882610beb565b9050919050565b60008115159050919050565b600073ffffffffffffffffffffffffffffffffffffffff82169050919050565b6000819050919050565b60005b83811015610c33578082015181840152602081019050610c18565b83811115610c42576000848401525b50505050565b7f4e487b7100000000000000000000000000000000000000000000000000000000600052601160045260246000fd5b6000601f19601f8301169050919050565b610c9181610bcd565b8114610c9c57600080fd5b50565b610ca881610bdf565b8114610cb357600080fd5b5056fea2646970667358221220b2148e17bcb2eb3c0467912deceb160e9e2a8e3c8a74d175e42e75e82b0cdc4564736f6c63430008000033",
  "immutableReferences": {},
  "source": "//SPDX-License-Identifier: MIT\r\npragma solidity ^0.8.0;\r\n\r\nimport \"./CrowdSale.sol\";\r\n\r\n//this contract will 'own' the tokens and distribute the tokens\r\n//eth will be sent to a specific wallet address\r\n\r\ncontract MyTokenSale is CrowdSale {\r\n\r\n  //how much wei a token costs, the wallet that recieves ether, address of token\r\n  constructor (uint256 rate, address payable wallet, IERC20 token) CrowdSale (rate, wallet, token) {\r\n  }\r\n\r\n}",
  "sourcePath": "C:/Users/Guceri/projects/tokenize/src/contracts/MyTokenSale.sol",
  "compiler": {
    "name": "solc",
    "version": "0.8.0+commit.c7dfd78e.Emscripten.clang"
  },
  "schemaVersion": "3.4.1",
  "updatedAt": "2021-05-17T20:19:52.550Z",
  "networkType": "ethereum",
  "devdoc": {
    "kind": "dev",
    "methods": {
      "buyTokens(address)": {
        "details": "low level token purchase ***DO NOT OVERRIDE*** This function has a non-reentrancy guard, so it shouldn't be called by another `nonReentrant` function.",
        "params": {
          "beneficiary": "Recipient of the token purchase"
        }
      },
      "weiRaised()": {
        "returns": {
          "_0": "the amount of wei raised."
        }
      }
    },
    "version": 1
  },
  "userdoc": {
    "events": {
      "TokensPurchased(address,address,uint256,uint256)": {
        "notice": "Event for token purchase logging"
      }
    },
    "kind": "user",
    "methods": {},
    "version": 1
  }
}